10911102110  TSA1A350B   **  NCA YN PO202400055832000000199999JACK SUB-ASSY, PANTOGRAPH                ZZ                                                                                  20240725            2024072520240725          PIECEN                           20240726WARP 20240726WARP 
10911102110  TSA1A740B   **  NCA YN PO202400055832000000199999JACK SUB-ASSY, PANTOGRAPH                ZZ                                                                                  20240725            2024072520240725          PIECEN                           20240726WARP 20240726WARP 
1091110D220  TSA1A380A   **  NCA YN PO202400055833000000199999JACK SUB-ASSY, PANTOGRAPH                ZZ                                                                                  20240725            2024072520240725          PIECEN                           20240726WARP 20240726WARP 
109111BZ320J TSA1AD92A   **  NCA YN PO202400055834000000199999JACK SUB-ASSY, PANTOGRAPH                ZZ                                                                                  20240725            2024072520240725          PIECEN                           20240726WARP 20240726WARP 
1091130D100  TSA1A810A   **  NCA YN PO202400055835000000199999HANDLE, PANTOGRAPH JACK                  ZZ                                                                                  20240725            2024072520240725          PIECEN                           20240726WARP 20240726WARP 
11200008010  STM1A274D   **  NCA YN PO202400055624002000799999ENGINE ASSY, W/CLUTCH                    ZZ                                                                                  20240725            2024072520240725          PIECEN                           20240726WARP 20240726WARP 
11200008010  STM1E320D   **  NCA YN PO202400055722002000799999ENGINE ASSY, W/CLUTCH                    ZZ                                                                                  20240725            2024072520240725          PIECEN                           20240726WARP 20240726WARP 
11200008010  STM1F320D   **  NCA YN PO202400055790002000799999ENGINE ASSY, W/CLUTCH                    ZZ                                                                                  20240725            2024072520240725          PIECEN                           20240726WARP 20240726WARP 
11200008020  STM1A274D   **  NCA YN PO202400055623002000799999ENGINE ASSY, W/CLUTCH                    ZZ                                                                                  20240725            2024072520240725          PIECEN                           20240726WARP 20240726WARP 
11200008020  STM1E320D   **  NCA YN PO202400055721002000799999ENGINE ASSY, W/CLUTCH                    ZZ                                                                                  20240725            2024072520240725          PIECEN                           20240726WARP 20240726WARP 
11200008020  STM1F320D   **  NCA YN PO202400055789002000799999ENGINE ASSY, W/CLUTCH                    ZZ                                                                                  20240725            2024072520240725          PIECEN                           20240726WARP 20240726WARP 
1120000C330  STM1A640A   **  NCA YN PO202400055689002000799999ENGINE ASSY, W/CLUTCH                    ZZ                                                                                  20240725            2024072520240725          PIECEN                           20240726WARP 20240726WARP 
1120000C340  STM1A640A   **  NCA YN PO202400055702002000799999ENGINE ASSY, W/CLUTCH                    ZZ                                                                                  20240725            2024072520240725          PIECEN                           20240726WARP 20240726WARP 
1120000C410  STM1A640A   **  NCA YN PO202400055699002000799999ENGINE ASSY, W/CLUTCH                    ZZ                                                                                  20240725            2024072520240725          PIECEN                           20240726WARP 20240726WARP 
1120000C450  STM1A640A   **  NCA YN PO202400055695002000799999ENGINE ASSY, W/CLUTCH                    ZZ                                                                                  20240725            2024072520240725          PIECEN                           20240726WARP 20240726WARP 
1120000C540  STM1A640A   **  NCA YN PO202400055691002000799999ENGINE ASSY, W/CLUTCH                    ZZ                                                                                  20240725            2024072520240725          PIECEN                           20240726WARP 20240726WARP 
1120000C540  STM1A645B   **  NCA YN PO202400055691002000799999ENGINE ASSY, W/CLUTCH                    ZZ                                                                                  20240725            2024072520240725          PIECEN                           20240726WARP 20240726WARP 
1120000C600  STM1A867B   **  NCA YN PO202400055692002000799999ENGINE ASSY, W/CLUTCH                    ZZ                                                                                  20240725            2024072520240725          PIECEN                           20240726WARP 20240726WARP 
1120000C610  STM1A640A   **  NCA YN PO202400055700002000799999ENGINE ASSY, W/CLUTCH                    ZZ                                                                                  20240725            2024072520240725          PIECEN                           20240726WARP 20240726WARP 
1120000C630  STM1A640A   **  NCA YN PO202400055696002000799999ENGINE ASSY, W/CLUTCH                    ZZ                                                                                  20240725            2024072520240725          PIECEN                           20240726WARP 20240726WARP 
1120000C650  STM1A188D   **  NCA YN PO202400055701002000799999ENGINE ASSY, W/CLUTCH                    ZZ                                                                                  20240725            2024072520240725          PIECEN                           20240726WARP 20240726WARP 
1120000C650  STM1A320D   **  NCA YN PO202400055701002000799999ENGINE ASSY, W/CLUTCH                    ZZ                                                                                  20240725            2024072520240725          PIECEN                           20240726WARP 20240726WARP 
1120000C660  STM1A320D   **  NCA YN PO202400055694002000799999ENGINE ASSY, W/CLUTCH                    ZZ                                                                                  20240725            2024072520240725          PIECEN                           20240726WARP 20240726WARP 
1120000C670  STM1A274D   **  NCA YN PO202400055693002000799999ENGINE ASSY, W/CLUTCH                    ZZ                                                                                  20240725            2024072520240725          PIECEN                           20240726WARP 20240726WARP 
1120000E620  STM1A274D   **  NCA YN PO202400055610002000799999ENGINE ASSY, W/CLUTCH                    ZZ                                                                                  20240725            2024072520240725          PIECEN                           20240726WARP 20240726WARP 
1120000E620  STM1E645B   **  NCA YN PO202400055708002000799999ENGINE ASSY, W/CLUTCH                    ZZ                                                                                  20240725            2024072520240725          PIECEN                           20240726WARP 20240726WARP 
1120000E620  STM1E867B   **  NCA YN PO202400055708002000799999ENGINE ASSY, W/CLUTCH                    ZZ                                                                                  20240725            2024072520240725          PIECEN                           20240726WARP 20240726WARP 
1120000E620  STM1F645B   **  NCA YN PO202400055776002000799999ENGINE ASSY, W/CLUTCH                    ZZ                                                                                  20240725            2024072520240725          PIECEN                           20240726WARP 20240726WARP 
1120000E620  STM1F867B   **  NCA YN PO202400055776002000799999ENGINE ASSY, W/CLUTCH                    ZZ                                                                                  20240725            2024072520240725          PIECEN                           20240726WARP 20240726WARP 
1120000E630  STM1A274D   **  NCA YN PO202400055611002000799999ENGINE ASSY,W/CLUTCH                     ZZ                                                                                  20240725            2024072520240725          PIECEN                           20240726WARP 20240726WARP 
1120000E630  STM1E645B   **  NCA YN PO202400055709002000799999ENGINE ASSY,W/CLUTCH                     ZZ                                                                                  20240725            2024072520240725          PIECEN                           20240726WARP 20240726WARP 
1120000E630  STM1E867B   **  NCA YN PO202400055709002000799999ENGINE ASSY,W/CLUTCH                     ZZ                                                                                  20240725            2024072520240725          PIECEN                           20240726WARP 20240726WARP 
1120000E630  STM1F645B   **  NCA YN PO202400055777002000799999ENGINE ASSY,W/CLUTCH                     ZZ                                                                                  20240725            2024072520240725          PIECEN                           20240726WARP 20240726WARP 
1120000E630  STM1F867B   **  NCA YN PO202400055777002000799999ENGINE ASSY,W/CLUTCH                     ZZ                                                                                  20240725            2024072520240725          PIECEN                           20240726WARP 20240726WARP 
1120000E640  STM1A274D   **  NCA YN PO202400055629002000799999ENGINE ASSY,W/CLUTCH                     ZZ                                                                                  20240725            2024072520240725          PIECEN                           20240726WARP 20240726WARP 
1120000E640  STM1E645B   **  NCA YN PO202400055727002000799999ENGINE ASSY,W/CLUTCH                     ZZ                                                                                  20240725            2024072520240725          PIECEN                           20240726WARP 20240726WARP 
1120000E640  STM1E867B   **  NCA YN PO202400055727002000799999ENGINE ASSY,W/CLUTCH                     ZZ                                                                                  20240725            2024072520240725          PIECEN                           20240726WARP 20240726WARP 
1120000E640  STM1F645B   **  NCA YN PO202400055795002000799999ENGINE ASSY,W/CLUTCH                     ZZ                                                                                  20240725            2024072520240725          PIECEN                           20240726WARP 20240726WARP 
1120000E640  STM1F867B   **  NCA YN PO202400055795002000799999ENGINE ASSY,W/CLUTCH                     ZZ                                                                                  20240725            2024072520240725          PIECEN                           20240726WARP 20240726WARP 
1120000E650  STM1A274D   **  NCA YN PO202400055630002000799999ENGINE ASSY,W/CLUTCH                     ZZ                                                                                  20240725            2024072520240725          PIECEN                           20240726WARP 20240726WARP 
1120000E650  STM1E645B   **  NCA YN PO202400055728002000799999ENGINE ASSY,W/CLUTCH                     ZZ                                                                                  20240725            2024072520240725          PIECEN                           20240726WARP 20240726WARP 
1120000E650  STM1F645B   **  NCA YN PO202400055796002000799999ENGINE ASSY,W/CLUTCH                     ZZ                                                                                  20240725            2024072520240725          PIECEN                           20240726WARP 20240726WARP 
1120000E650  STM1F867B   **  NCA YN PO202400055796002000799999ENGINE ASSY,W/CLUTCH                     ZZ                                                                                  20240725            2024072520240725          PIECEN                           20240726WARP 20240726WARP 
1120000E690  STM1A274D   **  NCA YN PO202400055612002000799999ENGINE ASSY,W/CLUTCH                     ZZ                                                                                  20240725            2024072520240725          PIECEN                           20240726WARP 20240726WARP 
1120000E690  STM1E645B   **  NCA YN PO202400055710002000799999ENGINE ASSY,W/CLUTCH                     ZZ                                                                                  20240725            2024072520240725          PIECEN                           20240726WARP 20240726WARP 
1120000E690  STM1E867B   **  NCA YN PO202400055710002000799999ENGINE ASSY,W/CLUTCH                     ZZ                                                                                  20240725            2024072520240725          PIECEN                           20240726WARP 20240726WARP 
1120000E690  STM1F645B   **  NCA YN PO202400055778002000799999ENGINE ASSY,W/CLUTCH                     ZZ                                                                                  20240725            2024072520240725          PIECEN                           20240726WARP 20240726WARP 
1120000E690  STM1F867B   **  NCA YN PO202400055778002000799999ENGINE ASSY,W/CLUTCH                     ZZ                                                                                  20240725            2024072520240725          PIECEN                           20240726WARP 20240726WARP 
1120000E700  STM1A274D   **  NCA YN PO202400055660002000799999ENGINE ASSY,W/CLUTCH                     ZZ                                                                                  20240725            2024072520240725          PIECEN                           20240726WARP 20240726WARP 
1120000E700  STM1E645B   **  NCA YN PO202400055758002000799999ENGINE ASSY,W/CLUTCH                     ZZ                                                                                  20240725            2024072520240725          PIECEN                           20240726WARP 20240726WARP 
1120000E700  STM1E867B   **  NCA YN PO202400055758002000799999ENGINE ASSY,W/CLUTCH                     ZZ                                                                                  20240725            2024072520240725          PIECEN                           20240726WARP 20240726WARP 
1120000E700  STM1F645B   **  NCA YN PO202400055826002000799999ENGINE ASSY,W/CLUTCH                     ZZ                                                                                  20240725            2024072520240725          PIECEN                           20240726WARP 20240726WARP 
1120000E700  STM1F867B   **  NCA YN PO202400055826002000799999ENGINE ASSY,W/CLUTCH                     ZZ                                                                                  20240725            2024072520240725          PIECEN                           20240726WARP 20240726WARP 
1120000E710  STM1A274D   **  NCA YN PO202400055627002000799999ENGINE ASSY,W/CLUTCH                     ZZ                                                                                  20240725            2024072520240725          PIECEN                           20240726WARP 20240726WARP 
1120000E710  STM1E645B   **  NCA YN PO202400055725002000799999ENGINE ASSY,W/CLUTCH                     ZZ                                                                                  20240725            2024072520240725          PIECEN                           20240726WARP 20240726WARP 
1120000E710  STM1E867B   **  NCA YN PO202400055725002000799999ENGINE ASSY,W/CLUTCH                     ZZ                                                                                  20240725            2024072520240725          PIECEN                           20240726WARP 20240726WARP 
1120000E710  STM1F645B   **  NCA YN PO202400055793002000799999ENGINE ASSY,W/CLUTCH                     ZZ                                                                                  20240725            2024072520240725          PIECEN                           20240726WARP 20240726WARP 
1120000E710  STM1F867B   **  NCA YN PO202400055793002000799999ENGINE ASSY,W/CLUTCH                     ZZ                                                                                  20240725            2024072520240725          PIECEN                           20240726WARP 20240726WARP 
1120000E730  STM1A274D   **  NCA YN PO202400055626002000799999ENGINE ASSY,W/CLUTCH                     ZZ                                                                                  20240725            2024072520240725          PIECEN                           20240726WARP 20240726WARP 
1120000E730  STM1E645B   **  NCA YN PO202400055724002000799999ENGINE ASSY,W/CLUTCH                     ZZ                                                                                  20240725            2024072520240725          PIECEN                           20240726WARP 20240726WARP 
1120000E730  STM1F645B   **  NCA YN PO202400055792002000799999ENGINE ASSY,W/CLUTCH                     ZZ                                                                                  20240725            2024072520240725          PIECEN                           20240726WARP 20240726WARP 
1120000E730  STM1F867B   **  NCA YN PO202400055792002000799999ENGINE ASSY,W/CLUTCH                     ZZ                                                                                  20240725            2024072520240725          PIECEN                           20240726WARP 20240726WARP 
1120000E740  STM1A274D   **  NCA YN PO202400055628002000799999ENGINE ASSY,W/CLUTCH                     ZZ                                                                                  20240725            2024072520240725          PIECEN                           20240726WARP 20240726WARP 
1120000E740  STM1E645B   **  NCA YN PO202400055726002000799999ENGINE ASSY,W/CLUTCH                     ZZ                                                                                  20240725            2024072520240725          PIECEN                           20240726WARP 20240726WARP 
1120000E740  STM1F645B   **  NCA YN PO202400055794002000799999ENGINE ASSY,W/CLUTCH                     ZZ                                                                                  20240725            2024072520240725          PIECEN                           20240726WARP 20240726WARP 
1120000E740  STM1F867B   **  NCA YN PO202400055794002000799999ENGINE ASSY,W/CLUTCH                     ZZ                                                                                  20240725            2024072520240725          PIECEN                           20240726WARP 20240726WARP 
1120000E760  STM1A274D   **  NCA YN PO202400055620002000799999ENGINE ASSY,W/CLUTCH                     ZZ                                                                                  20240725            2024072520240725          PIECEN                           20240726WARP 20240726WARP 
1120000E760  STM1E645B   **  NCA YN PO202400055718002000799999ENGINE ASSY,W/CLUTCH                     ZZ                                                                                  20240725            2024072520240725          PIECEN                           20240726WARP 20240726WARP 
1120000E760  STM1E867B   **  NCA YN PO202400055718002000799999ENGINE ASSY,W/CLUTCH                     ZZ                                                                                  20240725            2024072520240725          PIECEN                           20240726WARP 20240726WARP 
1120000E760  STM1F645B   **  NCA YN PO202400055786002000799999ENGINE ASSY,W/CLUTCH                     ZZ                                                                                  20240725            2024072520240725          PIECEN                           20240726WARP 20240726WARP 
1120000E760  STM1F867B   **  NCA YN PO202400055786002000799999ENGINE ASSY,W/CLUTCH                     ZZ                                                                                  20240725            2024072520240725          PIECEN                           20240726WARP 20240726WARP 
1120000E770  STM1A274D   **  NCA YN PO202400055636002000799999ENGINE ASSY,W/CLUTCH                     ZZ                                                                                  20240725            2024072520240725          PIECEN                           20240726WARP 20240726WARP 
1120000E770  STM1E645B   **  NCA YN PO202400055734002000799999ENGINE ASSY,W/CLUTCH                     ZZ                                                                                  20240725            2024072520240725          PIECEN                           20240726WARP 20240726WARP 
1120000E770  STM1E867B   **  NCA YN PO202400055734002000799999ENGINE ASSY,W/CLUTCH                     ZZ                                                                                  20240725            2024072520240725          PIECEN                           20240726WARP 20240726WARP 
1120000E770  STM1F645B   **  NCA YN PO202400055802002000799999ENGINE ASSY,W/CLUTCH                     ZZ                                                                                  20240725            2024072520240725          PIECEN                           20240726WARP 20240726WARP 
1120000E770  STM1F867B   **  NCA YN PO202400055802002000799999ENGINE ASSY,W/CLUTCH                     ZZ                                                                                  20240725            2024072520240725          PIECEN                           20240726WARP 20240726WARP 
1120000E790  STM1A274D   **  NCA YN PO202400055613002000799999ENGINE ASSY,W/CLUTCH                     ZZ                                                                                  20240725            2024072520240725          PIECEN                           20240726WARP 20240726WARP 
1120000E790  STM1E645B   **  NCA YN PO202400055711002000799999ENGINE ASSY,W/CLUTCH                     ZZ                                                                                  20240725            2024072520240725          PIECEN                           20240726WARP 20240726WARP 
1120000E790  STM1F645B   **  NCA YN PO202400055779002000799999ENGINE ASSY,W/CLUTCH                     ZZ                                                                                  20240725            2024072520240725          PIECEN                           20240726WARP 20240726WARP 
1120000E790  STM1F867B   **  NCA YN PO202400055779002000799999ENGINE ASSY,W/CLUTCH                     ZZ                                                                                  20240725            2024072520240725          PIECEN                           20240726WARP 20240726WARP 
1120000E800  STM1A274D   **  NCA YN PO202400055614002000799999ENGINE ASSY,W/CLUTCH                     ZZ                                                                                  20240725            2024072520240725          PIECEN                           20240726WARP 20240726WARP 
1120000E800  STM1E645B   **  NCA YN PO202400055712002000799999ENGINE ASSY,W/CLUTCH                     ZZ                                                                                  20240725            2024072520240725          PIECEN                           20240726WARP 20240726WARP 
1120000E800  STM1F645B   **  NCA YN PO202400055780002000799999ENGINE ASSY,W/CLUTCH                     ZZ                                                                                  20240725            2024072520240725          PIECEN                           20240726WARP 20240726WARP 
1120000E800  STM1F867B   **  NCA YN PO202400055780002000799999ENGINE ASSY,W/CLUTCH                     ZZ                                                                                  20240725            2024072520240725          PIECEN                           20240726WARP 20240726WARP 
1120000E830  STM1A274D   **  NCA YN PO202400055632002000799999ENGINE ASSY,W/CLUTCH                     ZZ                                                                                  20240725            2024072520240725          PIECEN                           20240726WARP 20240726WARP 
1120000E830  STM1E645B   **  NCA YN PO202400055730002000799999ENGINE ASSY,W/CLUTCH                     ZZ                                                                                  20240725            2024072520240725          PIECEN                           20240726WARP 20240726WARP 
1120000E830  STM1F645B   **  NCA YN PO202400055798002000799999ENGINE ASSY,W/CLUTCH                     ZZ                                                                                  20240725            2024072520240725          PIECEN                           20240726WARP 20240726WARP 
1120000E830  STM1F867B   **  NCA YN PO202400055798002000799999ENGINE ASSY,W/CLUTCH                     ZZ                                                                                  20240725            2024072520240725          PIECEN                           20240726WARP 20240726WARP 
1120000E860  STM1A274D   **  NCA YN PO202400055648002000799999ENGINE ASSY,W/CLUTCH                     ZZ                                                                                  20240725            2024072520240725          PIECEN                           20240726WARP 20240726WARP 
1120000E860  STM1E645B   **  NCA YN PO202400055746002000799999ENGINE ASSY,W/CLUTCH                     ZZ                                                                                  20240725            2024072520240725          PIECEN                           20240726WARP 20240726WARP 
1120000E860  STM1F645B   **  NCA YN PO202400055814002000799999ENGINE ASSY,W/CLUTCH                     ZZ                                                                                  20240725            2024072520240725          PIECEN                           20240726WARP 20240726WARP 
1120000E860  STM1F867B   **  NCA YN PO202400055814002000799999ENGINE ASSY,W/CLUTCH                     ZZ                                                                                  20240725            2024072520240725          PIECEN                           20240726WARP 20240726WARP 
1120000EC40  STM1A274D   **  NCA YN PO202400055638002000799999ENGINE ASSY, W/CLUTCH                    ZZ                                                                                  20240725            2024072520240725          PIECEN                           20240726WARP 20240726WARP 
1120000EC40  STM1E645B   **  NCA YN PO202400055736002000799999ENGINE ASSY, W/CLUTCH                    ZZ                                                                                  20240725            2024072520240725          PIECEN                           20240726WARP 20240726WARP 
1120000EC40  STM1F645B   **  NCA YN PO202400055804002000799999ENGINE ASSY, W/CLUTCH                    ZZ                                                                                  20240725            2024072520240725          PIECEN                           20240726WARP 20240726WARP 
1120000EC40  STM1F867B   **  NCA YN PO202400055804002000799999ENGINE ASSY, W/CLUTCH                    ZZ                                                                                  20240725            2024072520240725          PIECEN                           20240726WARP 20240726WARP 
1120000EC41  STM1A481D   **  NCA YN PO202400055665002000799999ENGINE ASSY, W/CLUTCH                    ZZ                                                                                  20240725            2024072520240725          PIECEN                           20240726WARP 20240726WARP 
1120000EC41  STM1E481D   **  NCA YN PO202400055763002000799999ENGINE ASSY, W/CLUTCH                    ZZ                                                                                  20240725            2024072520240725          PIECEN                           20240726WARP 20240726WARP 
1120000EC41  STM1F481D   **  NCA YN PO202400055831002000799999ENGINE ASSY, W/CLUTCH                    ZZ                                                                                  20240725            2024072520240725          PIECEN                           20240726WARP 20240726WARP 
1120000EC41  STM1F734F   **  NCA YN PO202400055831002000799999ENGINE ASSY, W/CLUTCH                    ZZ                                                                                  20240725            2024072520240725          PIECEN                           20240726WARP 20240726WARP 
1120000EC80  STM1A274D   **  NCA YN PO202400055621002000799999ENGINE ASSY, W/CLUTCH                    ZZ                                                                                  20240725            2024072520240725          PIECEN                           20240726WARP 20240726WARP 
1120000EC80  STM1E645B   **  NCA YN PO202400055719002000799999ENGINE ASSY, W/CLUTCH                    ZZ                                                                                  20240725            2024072520240725          PIECEN                           20240726WARP 20240726WARP 
1120000EC80  STM1E867B   **  NCA YN PO202400055719002000799999ENGINE ASSY, W/CLUTCH                    ZZ                                                                                  20240725            2024072520240725          PIECEN                           20240726WARP 20240726WARP 
1120000EC80  STM1F645B   **  NCA YN PO202400055787002000799999ENGINE ASSY, W/CLUTCH                    ZZ                                                                                  20240725            2024072520240725          PIECEN                           20240726WARP 20240726WARP 
1120000EC80  STM1F867B   **  NCA YN PO202400055787002000799999ENGINE ASSY, W/CLUTCH                    ZZ                                                                                  20240725            2024072520240725          PIECEN                           20240726WARP 20240726WARP 
1120000EC81  STM1A481D   **  NCA YN PO202400055663002000799999ENGINE ASSY, W/CLUTCH                    ZZ                                                                                  20240725            2024072520240725          PIECEN                           20240726WARP 20240726WARP 
1120000EC81  STM1A734F   **  NCA YN PO202400055663002000799999ENGINE ASSY, W/CLUTCH                    ZZ                                                                                  20240725            2024072520240725          PIECEN                           20240726WARP 20240726WARP 
1120000EC81  STM1E481D   **  NCA YN PO202400055761002000799999ENGINE ASSY, W/CLUTCH                    ZZ                                                                                  20240725            2024072520240725          PIECEN                           20240726WARP 20240726WARP 
1120000EC81  STM1E734F   **  NCA YN PO202400055761002000799999ENGINE ASSY, W/CLUTCH                    ZZ                                                                                  20240725            2024072520240725          PIECEN                           20240726WARP 20240726WARP 
1120000EC81  STM1F481D   **  NCA YN PO202400055829002000799999ENGINE ASSY, W/CLUTCH                    ZZ                                                                                  20240725            2024072520240725          PIECEN                           20240726WARP 20240726WARP 
1120000EC81  STM1F734F   **  NCA YN PO202400055829002000799999ENGINE ASSY, W/CLUTCH                    ZZ                                                                                  20240725            2024072520240725          PIECEN                           20240726WARP 20240726WARP 
1120000ED40  STM1A274D   **  NCA YN PO202400055633002000799999ENGINE ASSY, W/CLUTCH                    ZZ                                                                                  20240725            2024072520240725          PIECEN                           20240726WARP 20240726WARP 
1120000ED40  STM1E645B   **  NCA YN PO202400055731002000799999ENGINE ASSY, W/CLUTCH                    ZZ                                                                                  20240725            2024072520240725          PIECEN                           20240726WARP 20240726WARP 
1120000ED40  STM1F645B   **  NCA YN PO202400055799002000799999ENGINE ASSY, W/CLUTCH                    ZZ                                                                                  20240725            2024072520240725          PIECEN                           20240726WARP 20240726WARP 
1120000EE11  STM1A274D   **  NCA YN PO202400055654002000799999ENGINE ASSY, W/CLUTCH                    ZZ                                                                                  20240725            2024072520240725          PIECEN                           20240726WARP 20240726WARP 
1120000EE11  STM1E274D   **  NCA YN PO202400055752002000799999ENGINE ASSY, W/CLUTCH                    ZZ                                                                                  20240725            2024072520240725          PIECEN                           20240726WARP 20240726WARP 
1120000EE11  STM1F181B   **  NCA YN PO202400055820002000799999ENGINE ASSY, W/CLUTCH                    ZZ                                                                                  20240725            2024072520240725          PIECEN                           20240726WARP 20240726WARP 
1120000EE40  STM1A274D   **  NCA YN PO202400055637002000799999ENGINE ASSY, W/CLUTCH                    ZZ                                                                                  20240725            2024072520240725          PIECEN                           20240726WARP 20240726WARP 
1120000EE40  STM1E188D   **  NCA YN PO202400055735002000799999ENGINE ASSY, W/CLUTCH                    ZZ                                                                                  20240725            2024072520240725          PIECEN                           20240726WARP 20240726WARP 
1120000EE40  STM1F188D   **  NCA YN PO202400055803002000799999ENGINE ASSY, W/CLUTCH                    ZZ                                                                                  20240725            2024072520240725          PIECEN                           20240726WARP 20240726WARP 
1120000EE60  STM1A274D   **  NCA YN PO202400055649002000799999ENGINE ASSY, W/CLUTCH                    ZZ                                                                                  20240725            2024072520240725          PIECEN                           20240726WARP 20240726WARP 
1120000EE60  STM1E188D   **  NCA YN PO202400055747002000799999ENGINE ASSY, W/CLUTCH                    ZZ                                                                                  20240725            2024072520240725          PIECEN                           20240726WARP 20240726WARP 
1120000EE60  STM1F188D   **  NCA YN PO202400055815002000799999ENGINE ASSY, W/CLUTCH                    ZZ                                                                                  20240725            2024072520240725          PIECEN                           20240726WARP 20240726WARP 
1120000EF00  STM1A274D   **  NCA YN PO202400055608002000799999ENGINE ASSY, W/CLUTCH                    ZZ                                                                                  20240725            2024072520240725          PIECEN                           20240726WARP 20240726WARP 
1120000EF00  STM1E645B   **  NCA YN PO202400055706002000799999ENGINE ASSY, W/CLUTCH                    ZZ                                                                                  20240725            2024072520240725          PIECEN                           20240726WARP 20240726WARP 
1120000EF00  STM1F645B   **  NCA YN PO202400055774002000799999ENGINE ASSY, W/CLUTCH                    ZZ                                                                                  20240725            2024072520240725          PIECEN                           20240726WARP 20240726WARP 
1120000EF00  STM1F867B   **  NCA YN PO202400055774002000799999ENGINE ASSY, W/CLUTCH                    ZZ                                                                                  20240725            2024072520240725          PIECEN                           20240726WARP 20240726WARP 
1120000EG21  STM1A274D   **  NCA YN PO202400055657002000799999ENGINE ASSY, W/CLUTCH                    ZZ                                                                                  20240725            2024072520240725          PIECEN                           20240726WARP 20240726WARP 
1120000EG21  STM1E274D   **  NCA YN PO202400055755002000799999ENGINE ASSY, W/CLUTCH                    ZZ                                                                                  20240725            2024072520240725          PIECEN                           20240726WARP 20240726WARP 
1120000EG21  STM1E481D   **  NCA YN PO202400055755002000799999ENGINE ASSY, W/CLUTCH                    ZZ                                                                                  20240725            2024072520240725          PIECEN                           20240726WARP 20240726WARP 
1120000EG21  STM1E734F   **  NCA YN PO202400055755002000799999ENGINE ASSY, W/CLUTCH                    ZZ                                                                                  20240725            2024072520240725          PIECEN                           20240726WARP 20240726WARP 
1120000EG21  STM1F274D   **  NCA YN PO202400055823002000799999ENGINE ASSY, W/CLUTCH                    ZZ                                                                                  20240725            2024072520240725          PIECEN                           20240726WARP 20240726WARP 
1120000EG21  STM1F481D   **  NCA YN PO202400055823002000799999ENGINE ASSY, W/CLUTCH                    ZZ                                                                                  20240725            2024072520240725          PIECEN                           20240726WARP 20240726WARP 
1120000EG21  STM1F734F   **  NCA YN PO202400055823002000799999ENGINE ASSY, W/CLUTCH                    ZZ                                                                                  20240725            2024072520240725          PIECEN                           20240726WARP 20240726WARP 
1120000EG31  STM1A274D   **  NCA YN PO202400055656002000799999ENGINE ASSY, W/CLUTCH                    ZZ                                                                                  20240725            2024072520240725          PIECEN                           20240726WARP 20240726WARP 
1120000EG31  STM1E274D   **  NCA YN PO202400055754002000799999ENGINE ASSY, W/CLUTCH                    ZZ                                                                                  20240725            2024072520240725          PIECEN                           20240726WARP 20240726WARP 
1120000EG31  STM1E481D   **  NCA YN PO202400055754002000799999ENGINE ASSY, W/CLUTCH                    ZZ                                                                                  20240725            2024072520240725          PIECEN                           20240726WARP 20240726WARP 
1120000EG31  STM1E734F   **  NCA YN PO202400055754002000799999ENGINE ASSY, W/CLUTCH                    ZZ                                                                                  20240725            2024072520240725          PIECEN                           20240726WARP 20240726WARP 
1120000EG31  STM1F274D   **  NCA YN PO202400055822002000799999ENGINE ASSY, W/CLUTCH                    ZZ                                                                                  20240725            2024072520240725          PIECEN                           20240726WARP 20240726WARP 
1120000EG31  STM1F481D   **  NCA YN PO202400055822002000799999ENGINE ASSY, W/CLUTCH                    ZZ                                                                                  20240725            2024072520240725          PIECEN                           20240726WARP 20240726WARP 
1120000EG31  STM1F734F   **  NCA YN PO202400055822002000799999ENGINE ASSY, W/CLUTCH                    ZZ                                                                                  20240725            2024072520240725          PIECEN                           20240726WARP 20240726WARP 
1120000EG41  STM1A274D   **  NCA YN PO202400055639002000799999ENGINE ASSY, W/CLUTCH                    ZZ                                                                                  20240725            2024072520240725          PIECEN                           20240726WARP 20240726WARP 
1120000EG41  STM1E274D   **  NCA YN PO202400055737002000799999ENGINE ASSY, W/CLUTCH                    ZZ                                                                                  20240725            2024072520240725          PIECEN                           20240726WARP 20240726WARP 
1120000EG41  STM1E481D   **  NCA YN PO202400055737002000799999ENGINE ASSY, W/CLUTCH                    ZZ                                                                                  20240725            2024072520240725          PIECEN                           20240726WARP 20240726WARP 
1120000EG41  STM1E734F   **  NCA YN PO202400055737002000799999ENGINE ASSY, W/CLUTCH                    ZZ                                                                                  20240725            2024072520240725          PIECEN                           20240726WARP 20240726WARP 
1120000EG41  STM1F274D   **  NCA YN PO202400055805002000799999ENGINE ASSY, W/CLUTCH                    ZZ                                                                                  20240725            2024072520240725          PIECEN                           20240726WARP 20240726WARP 
1120000EG41  STM1F481D   **  NCA YN PO202400055805002000799999ENGINE ASSY, W/CLUTCH                    ZZ                                                                                  20240725            2024072520240725          PIECEN                           20240726WARP 20240726WARP 
1120000EG41  STM1F734F   **  NCA YN PO202400055805002000799999ENGINE ASSY, W/CLUTCH                    ZZ                                                                                  20240725            2024072520240725          PIECEN                           20240726WARP 20240726WARP 
1120000Y270  STM1A380A   **  NCA YN PO202400055685002000799999ENGINE ASSY, W/CLUTCH                    ZZ                                                                                  20240725            2024072520240725          PIECEN                           20240726WARP 20240726WARP 
1120000Y290  STM1A380A   **  NCA YN PO202400055682002000799999ENGINE ASSY, W/CLUTCH                    ZZ                                                                                  20240725            2024072520240725          PIECEN                           20240726WARP 20240726WARP 
1120000Y350  STM1A380A   **  NCA YN PO202400055669002000799999ENGINE ASSY, W/CLUTCH                    ZZ                                                                                  20240725            2024072520240725          PIECEN                           20240726WARP 20240726WARP 
112000BZF20  STM1AD13E   **  NCA YN PO202400055672002000799999ENGINE ASSY, W/CLUTCH                    ZZ                                                                                  20240725            2024072520240725          PIECEN                           20240726WARP 20240726WARP 
112000BZF20  STM1AD92A   **  NCA YN PO202400055672002000799999ENGINE ASSY, W/CLUTCH                    ZZ                                                                                  20240725            2024072520240725          PIECEN                           20240726WARP 20240726WARP 
112000BZF50  STM1AD13E   **  NCA YN PO202400055673002000799999ENGINE ASSY, W/CLUTCH                    ZZ                                                                                  20240725            2024072520240725          PIECEN                           20240726WARP 20240726WARP 
112000BZF50  STM1AD92A   **  NCA YN PO202400055673002000799999ENGINE ASSY, W/CLUTCH                    ZZ                                                                                  20240725            2024072520240725          PIECEN                           20240726WARP 20240726WARP 
112000BZF60  STM1AD13E   **  NCA YN PO202400055687002000799999ENGINE ASSY, W/CLUTCH                    ZZ                                                                                  20240725            2024072520240725          PIECEN                           20240726WARP 20240726WARP 
112000BZF60  STM1AD92A   **  NCA YN PO202400055687002000799999ENGINE ASSY, W/CLUTCH                    ZZ                                                                                  20240725            2024072520240725          PIECEN                           20240726WARP 20240726WARP 
112000BZG60  STM1AD13E   **  NCA YN PO202400055683002000799999ENGINE ASSY, W/CLUTCH                    ZZ                                                                                  20240725            2024072520240725          PIECEN                           20240726WARP 20240726WARP 
112000BZG60  STM1AD92A   **  NCA YN PO202400055683002000799999ENGINE ASSY, W/CLUTCH                    ZZ                                                                                  20240725            2024072520240725          PIECEN                           20240726WARP 20240726WARP 
112000BZG70  STM1AD13E   **  NCA YN PO202400055677002000799999ENGINE ASSY, W/CLUTCH                    ZZ                                                                                  20240725            2024072520240725          PIECEN                           20240726WARP 20240726WARP 
112000BZG70  STM1AD92A   **  NCA YN PO202400055677002000799999ENGINE ASSY, W/CLUTCH                    ZZ                                                                                  20240725            2024072520240725          PIECEN                           20240726WARP 20240726WARP 
112631BZ010  TSA1BD92A   **  NCA YN PO202400055836000000199999BRACKET. ENGINE COVER                    ZZ                                                                                  20240725            2024072520240725          PIECEN                           20240726WARP 20240726WARP 
1126320E010B TSA1B640A   **  NCA YN PO202400055837000000199999BRACKET, ENGINE COVER, NO.2              ZZ                                                                                  20240725            2024072520240725          PIECEN                           20240726WARP 20240726WARP 
1130500C010A 2DSIA053Y   **  NCA YN PO202400054972005001799999GEAR ASSY, CAMSHAFT TIMING               ZZ                                                                                  20240725            2024072520240725          PIECEN                           20240726WARP 20240726WARP 
1130500Y020  2DSIA060B   **  NCA YN PO202400054973005001799999GEAR ASSY, CAMSHAFT TIMING               ZZ                                                                                  20240725            2024072520240725          PIECEN                           20240726WARP 20240726WARP 
1130500Y020  2DSIA105Y   **  NCA YN PO202400054973005001799999GEAR ASSY, CAMSHAFT TIMING               ZZ                                                                                  20240725            2024072520240725          PIECEN                           20240726WARP 20240726WARP 
1130500Y020  2DSIA112Y   **  NCA YN PO202400054973005001799999GEAR ASSY, CAMSHAFT TIMING               ZZ                                                                                  20240725            2024072520240725          PIECEN                           20240726WARP 20240726WARP 
1130500Y020  2DSIA230B   **  NCA YN PO202400054973005001799999GEAR ASSY, CAMSHAFT TIMING               ZZ                                                                                  20240725            2024072520240725          PIECEN                           20240726WARP 20240726WARP 
113050BZ040  2DSIAD23X   **  NCA YN PO202400054974005001799999GEAR ASSY, CAMSHAFT TIMING               ZZ                                                                                  20240725            2024072520240725          PIECEN                           20240726WARP 20240726WARP 
1130700C010B 2DSIA053Y   **  NCA YN PO202400054975005001799999GEAR ASSY, CAMSHAFT TIMING EXHAUST       ZZ                                                                                  20240725            2024072520240725          PIECEN                           20240726WARP 20240726WARP 
1130700Y020  2DSIA060B   **  NCA YN PO202400054976005001799999GEAR ASSY, CAMSHAFT TIMING EXHAUST       ZZ                                                                                  20240725            2024072520240725          PIECEN                           20240726WARP 20240726WARP 
1130700Y020  2DSIA105Y   **  NCA YN PO202400054976005001799999GEAR ASSY, CAMSHAFT TIMING EXHAUST       ZZ                                                                                  20240725            2024072520240725          PIECEN                           20240726WARP 20240726WARP 
1130700Y020  2DSIA112Y   **  NCA YN PO202400054976005001799999GEAR ASSY, CAMSHAFT TIMING EXHAUST       ZZ                                                                                  20240725            2024072520240725          PIECEN                           20240726WARP 20240726WARP 
1130700Y020  2DSIA230B   **  NCA YN PO202400054976005001799999GEAR ASSY, CAMSHAFT TIMING EXHAUST       ZZ                                                                                  20240725            2024072520240725          PIECEN                           20240726WARP 20240726WARP 
11600008010  STM1A274D   **  NCA YN PO202400055625002000799999ENGINE ASSY, L/CLUTCH                    ZZ                                                                                  20240725            2024072520240725          PIECEN                           20240726WARP 20240726WARP 
11600008010  STM1E320D   **  NCA YN PO202400055723002000799999ENGINE ASSY, L/CLUTCH                    ZZ                                                                                  20240725            2024072520240725          PIECEN                           20240726WARP 20240726WARP 
11600008010  STM1F320D   **  NCA YN PO202400055791002000799999ENGINE ASSY, L/CLUTCH                    ZZ                                                                                  20240725            2024072520240725          PIECEN                           20240726WARP 20240726WARP 
11600008020  STM1A274D   **  NCA YN PO202400055617002000799999ENGINE ASSY, L/CLUTCH                    ZZ                                                                                  20240725            2024072520240725          PIECEN                           20240726WARP 20240726WARP 
11600008020  STM1E320D   **  NCA YN PO202400055715002000799999ENGINE ASSY, L/CLUTCH                    ZZ                                                                                  20240725            2024072520240725          PIECEN                           20240726WARP 20240726WARP 
11600008020  STM1F320D   **  NCA YN PO202400055783002000799999ENGINE ASSY, L/CLUTCH                    ZZ                                                                                  20240725            2024072520240725          PIECEN                           20240726WARP 20240726WARP 
1160000E370  STM1A274D   **  NCA YN PO202400055607002000799999ENGINE ASSY, L/CLUTCH                    ZZ                                                                                  20240725            2024072520240725          PIECEN                           20240726WARP 20240726WARP 
1160000E370  STM1E645B   **  NCA YN PO202400055705002000799999ENGINE ASSY, L/CLUTCH                    ZZ                                                                                  20240725            2024072520240725          PIECEN                           20240726WARP 20240726WARP 
1160000E370  STM1E867B   **  NCA YN PO202400055705002000799999ENGINE ASSY, L/CLUTCH                    ZZ                                                                                  20240725            2024072520240725          PIECEN                           20240726WARP 20240726WARP 
1160000E370  STM1F645B   **  NCA YN PO202400055773002000799999ENGINE ASSY, L/CLUTCH                    ZZ                                                                                  20240725            2024072520240725          PIECEN                           20240726WARP 20240726WARP 
1160000E370  STM1F867B   **  NCA YN PO202400055773002000799999ENGINE ASSY, L/CLUTCH                    ZZ                                                                                  20240725            2024072520240725          PIECEN                           20240726WARP 20240726WARP 
1160000E380  STM1A274D   **  NCA YN PO202400055609002000799999ENGINE ASSY, L/CLUTCH                    ZZ                                                                                  20240725            2024072520240725          PIECEN                           20240726WARP 20240726WARP 
1160000E380  STM1E645B   **  NCA YN PO202400055707002000799999ENGINE ASSY, L/CLUTCH                    ZZ                                                                                  20240725            2024072520240725          PIECEN                           20240726WARP 20240726WARP 
1160000E380  STM1E867B   **  NCA YN PO202400055707002000799999ENGINE ASSY, L/CLUTCH                    ZZ                                                                                  20240725            2024072520240725          PIECEN                           20240726WARP 20240726WARP 
1160000E380  STM1F645B   **  NCA YN PO202400055775002000799999ENGINE ASSY, L/CLUTCH                    ZZ                                                                                  20240725            2024072520240725          PIECEN                           20240726WARP 20240726WARP 
1160000E380  STM1F867B   **  NCA YN PO202400055775002000799999ENGINE ASSY, L/CLUTCH                    ZZ                                                                                  20240725            2024072520240725          PIECEN                           20240726WARP 20240726WARP 
1160000E390  STM1A274D   **  NCA YN PO202400055631002000799999ENGINE ASSY, L/CLUTCH                    ZZ                                                                                  20240725            2024072520240725          PIECEN                           20240726WARP 20240726WARP 
1160000E390  STM1E645B   **  NCA YN PO202400055729002000799999ENGINE ASSY, L/CLUTCH                    ZZ                                                                                  20240725            2024072520240725          PIECEN                           20240726WARP 20240726WARP 
1160000E390  STM1E867B   **  NCA YN PO202400055729002000799999ENGINE ASSY, L/CLUTCH                    ZZ                                                                                  20240725            2024072520240725          PIECEN                           20240726WARP 20240726WARP 
1160000E390  STM1F645B   **  NCA YN PO202400055797002000799999ENGINE ASSY, L/CLUTCH                    ZZ                                                                                  20240725            2024072520240725          PIECEN                           20240726WARP 20240726WARP 
1160000E390  STM1F867B   **  NCA YN PO202400055797002000799999ENGINE ASSY, L/CLUTCH                    ZZ                                                                                  20240725            2024072520240725          PIECEN                           20240726WARP 20240726WARP 
1160000E400  STM1A274D   **  NCA YN PO202400055622002000799999ENGINE ASSY, L/CLUTCH                    ZZ                                                                                  20240725            2024072520240725          PIECEN                           20240726WARP 20240726WARP 
1160000E400  STM1E645B   **  NCA YN PO202400055720002000799999ENGINE ASSY, L/CLUTCH                    ZZ                                                                                  20240725            2024072520240725          PIECEN                           20240726WARP 20240726WARP 
1160000E400  STM1E867B   **  NCA YN PO202400055720002000799999ENGINE ASSY, L/CLUTCH                    ZZ                                                                                  20240725            2024072520240725          PIECEN                           20240726WARP 20240726WARP 
1160000E400  STM1F645B   **  NCA YN PO202400055788002000799999ENGINE ASSY, L/CLUTCH                    ZZ                                                                                  20240725            2024072520240725          PIECEN                           20240726WARP 20240726WARP 
1160000E400  STM1F867B   **  NCA YN PO202400055788002000799999ENGINE ASSY, L/CLUTCH                    ZZ                                                                                  20240725            2024072520240725          PIECEN                           20240726WARP 20240726WARP 
1160000E401  STM1A274D   **  NCA YN PO202400055662002000799999ENGINE ASSY, L/CLUTCH                    ZZ                                                                                  20240725            2024072520240725          PIECEN                           20240726WARP 20240726WARP 
1160000E401  STM1A481D   **  NCA YN PO202400055662002000799999ENGINE ASSY, L/CLUTCH                    ZZ                                                                                  20240725            2024072520240725          PIECEN                           20240726WARP 20240726WARP 
1160000E401  STM1A734F   **  NCA YN PO202400055662002000799999ENGINE ASSY, L/CLUTCH                    ZZ                                                                                  20240725            2024072520240725          PIECEN                           20240726WARP 20240726WARP 
1160000E401  STM1E481D   **  NCA YN PO202400055760002000799999ENGINE ASSY, L/CLUTCH                    ZZ                                                                                  20240725            2024072520240725          PIECEN                           20240726WARP 20240726WARP 
1160000E401  STM1F481D   **  NCA YN PO202400055828002000799999ENGINE ASSY, L/CLUTCH                    ZZ                                                                                  20240725            2024072520240725          PIECEN                           20240726WARP 20240726WARP 
1160000E410  STM1A274D   **  NCA YN PO202400055659002000799999ENGINE ASSY, L/CLUTCH                    ZZ                                                                                  20240725            2024072520240725          PIECEN                           20240726WARP 20240726WARP 
1160000E410  STM1E645B   **  NCA YN PO202400055757002000799999ENGINE ASSY, L/CLUTCH                    ZZ                                                                                  20240725            2024072520240725          PIECEN                           20240726WARP 20240726WARP 
1160000E410  STM1E867B   **  NCA YN PO202400055757002000799999ENGINE ASSY, L/CLUTCH                    ZZ                                                                                  20240725            2024072520240725          PIECEN                           20240726WARP 20240726WARP 
1160000E410  STM1F645B   **  NCA YN PO202400055825002000799999ENGINE ASSY, L/CLUTCH                    ZZ                                                                                  20240725            2024072520240725          PIECEN                           20240726WARP 20240726WARP 
1160000E410  STM1F867B   **  NCA YN PO202400055825002000799999ENGINE ASSY, L/CLUTCH                    ZZ                                                                                  20240725            2024072520240725          PIECEN                           20240726WARP 20240726WARP 
1160000E420  STM1A274D   **  NCA YN PO202400055652002000799999ENGINE ASSY, L/CLUTCH                    ZZ                                                                                  20240725            2024072520240725          PIECEN                           20240726WARP 20240726WARP 
1160000E420  STM1E645B   **  NCA YN PO202400055750002000799999ENGINE ASSY, L/CLUTCH                    ZZ                                                                                  20240725            2024072520240725          PIECEN                           20240726WARP 20240726WARP 
1160000E420  STM1F645B   **  NCA YN PO202400055818002000799999ENGINE ASSY, L/CLUTCH                    ZZ                                                                                  20240725            2024072520240725          PIECEN                           20240726WARP 20240726WARP 
1160000E420  STM1F867B   **  NCA YN PO202400055818002000799999ENGINE ASSY, L/CLUTCH                    ZZ                                                                                  20240725            2024072520240725          PIECEN                           20240726WARP 20240726WARP 
1160000E430  STM1A274D   **  NCA YN PO202400055615002000799999ENGINE ASSY, L/CLUTCH                    ZZ                                                                                  20240725            2024072520240725          PIECEN                           20240726WARP 20240726WARP 
1160000E430  STM1E645B   **  NCA YN PO202400055713002000799999ENGINE ASSY, L/CLUTCH                    ZZ                                                                                  20240725            2024072520240725          PIECEN                           20240726WARP 20240726WARP 
1160000E430  STM1F645B   **  NCA YN PO202400055781002000799999ENGINE ASSY, L/CLUTCH                    ZZ                                                                                  20240725            2024072520240725          PIECEN                           20240726WARP 20240726WARP 
1160000E430  STM1F867B   **  NCA YN PO202400055781002000799999ENGINE ASSY, L/CLUTCH                    ZZ                                                                                  20240725            2024072520240725          PIECEN                           20240726WARP 20240726WARP 
1160000E440  STM1A274D   **  NCA YN PO202400055619002000799999ENGINE ASSY, L/CLUTCH                    ZZ                                                                                  20240725            2024072520240725          PIECEN                           20240726WARP 20240726WARP 
1160000E440  STM1E645B   **  NCA YN PO202400055717002000799999ENGINE ASSY, L/CLUTCH                    ZZ                                                                                  20240725            2024072520240725          PIECEN                           20240726WARP 20240726WARP 
1160000E440  STM1F645B   **  NCA YN PO202400055785002000799999ENGINE ASSY, L/CLUTCH                    ZZ                                                                                  20240725            2024072520240725          PIECEN                           20240726WARP 20240726WARP 
1160000E440  STM1F867B   **  NCA YN PO202400055785002000799999ENGINE ASSY, L/CLUTCH                    ZZ                                                                                  20240725            2024072520240725          PIECEN                           20240726WARP 20240726WARP 
1160000E450  STM1A274D   **  NCA YN PO202400055616002000799999ENGINE ASSY, L/CLUTCH                    ZZ                                                                                  20240725            2024072520240725          PIECEN                           20240726WARP 20240726WARP 
1160000E450  STM1E645B   **  NCA YN PO202400055714002000799999ENGINE ASSY, L/CLUTCH                    ZZ                                                                                  20240725            2024072520240725          PIECEN                           20240726WARP 20240726WARP 
1160000E450  STM1F645B   **  NCA YN PO202400055782002000799999ENGINE ASSY, L/CLUTCH                    ZZ                                                                                  20240725            2024072520240725          PIECEN                           20240726WARP 20240726WARP 
1160000E450  STM1F867B   **  NCA YN PO202400055782002000799999ENGINE ASSY, L/CLUTCH                    ZZ                                                                                  20240725            2024072520240725          PIECEN                           20240726WARP 20240726WARP 
1160000E460  STM1A274D   **  NCA YN PO202400055644002000799999ENGINE ASSY, L/CLUTCH                    ZZ                                                                                  20240725            2024072520240725          PIECEN                           20240726WARP 20240726WARP 
1160000E460  STM1E645B   **  NCA YN PO202400055742002000799999ENGINE ASSY, L/CLUTCH                    ZZ                                                                                  20240725            2024072520240725          PIECEN                           20240726WARP 20240726WARP 
1160000E460  STM1F645B   **  NCA YN PO202400055810002000799999ENGINE ASSY, L/CLUTCH                    ZZ                                                                                  20240725            2024072520240725          PIECEN                           20240726WARP 20240726WARP 
1160000E460  STM1F867B   **  NCA YN PO202400055810002000799999ENGINE ASSY, L/CLUTCH                    ZZ                                                                                  20240725            2024072520240725          PIECEN                           20240726WARP 20240726WARP 
1160000E480  STM1A024J   **  NCA YN PO202400055661002000799999ENGINE ASSY,L/CLUTCH                     ZZ                                                                                  20240725            2024072520240725          PIECEN                           20240726WARP 20240726WARP 
1160000E480  STM1A188D   **  NCA YN PO202400055661002000799999ENGINE ASSY,L/CLUTCH                     ZZ                                                                                  20240725            2024072520240725          PIECEN                           20240726WARP 20240726WARP 
1160000E480  STM1A274D   **  NCA YN PO202400055661002000799999ENGINE ASSY,L/CLUTCH                     ZZ                                                                                  20240725            2024072520240725          PIECEN                           20240726WARP 20240726WARP 
1160000E480  STM1A407D   **  NCA YN PO202400055661002000799999ENGINE ASSY,L/CLUTCH                     ZZ                                                                                  20240725            2024072520240725          PIECEN                           20240726WARP 20240726WARP 
1160000E480  STM1A481D   **  NCA YN PO202400055661002000799999ENGINE ASSY,L/CLUTCH                     ZZ                                                                                  20240725            2024072520240725          PIECEN                           20240726WARP 20240726WARP 
1160000E480  STM1A734F   **  NCA YN PO202400055661002000799999ENGINE ASSY,L/CLUTCH                     ZZ                                                                                  20240725            2024072520240725          PIECEN                           20240726WARP 20240726WARP 
1160000E480  STM1A867B   **  NCA YN PO202400055661002000799999ENGINE ASSY,L/CLUTCH                     ZZ                                                                                  20240725            2024072520240725          PIECEN                           20240726WARP 20240726WARP 
1160000E480  STM1E645B   **  NCA YN PO202400055759002000799999ENGINE ASSY,L/CLUTCH                     ZZ                                                                                  20240725            2024072520240725          PIECEN                           20240726WARP 20240726WARP 
1160000E480  STM1F645B   **  NCA YN PO202400055827002000799999ENGINE ASSY,L/CLUTCH                     ZZ                                                                                  20240725            2024072520240725          PIECEN                           20240726WARP 20240726WARP 
1160000E480  STM1F867B   **  NCA YN PO202400055827002000799999ENGINE ASSY,L/CLUTCH                     ZZ                                                                                  20240725            2024072520240725          PIECEN                           20240726WARP 20240726WARP 
1160000E490  STM1A274D   **  NCA YN PO202400055653002000799999ENGINE ASSY, L/CLUTCH                    ZZ                                                                                  20240725            2024072520240725          PIECEN                           20240726WARP 20240726WARP 
1160000E490  STM1E645B   **  NCA YN PO202400055751002000799999ENGINE ASSY, L/CLUTCH                    ZZ                                                                                  20240725            2024072520240725          PIECEN                           20240726WARP 20240726WARP 
1160000E490  STM1F645B   **  NCA YN PO202400055819002000799999ENGINE ASSY, L/CLUTCH                    ZZ                                                                                  20240725            2024072520240725          PIECEN                           20240726WARP 20240726WARP 
1160000E490  STM1F867B   **  NCA YN PO202400055819002000799999ENGINE ASSY, L/CLUTCH                    ZZ                                                                                  20240725            2024072520240725          PIECEN                           20240726WARP 20240726WARP 
1160000E510  STM1A024J   **  NCA YN PO202400055651002000799999ENGINE ASSY, L/CLUTCH                    ZZ                                                                                  20240725            2024072520240725          PIECEN                           20240726WARP 20240726WARP 
1160000E510  STM1A188D   **  NCA YN PO202400055651002000799999ENGINE ASSY, L/CLUTCH                    ZZ                                                                                  20240725            2024072520240725          PIECEN                           20240726WARP 20240726WARP 
1160000E510  STM1A274D   **  NCA YN PO202400055651002000799999ENGINE ASSY, L/CLUTCH                    ZZ                                                                                  20240725            2024072520240725          PIECEN                           20240726WARP 20240726WARP 
1160000E510  STM1A407D   **  NCA YN PO202400055651002000799999ENGINE ASSY, L/CLUTCH                    ZZ                                                                                  20240725            2024072520240725          PIECEN                           20240726WARP 20240726WARP 
1160000E510  STM1A481D   **  NCA YN PO202400055651002000799999ENGINE ASSY, L/CLUTCH                    ZZ                                                                                  20240725            2024072520240725          PIECEN                           20240726WARP 20240726WARP 
1160000E510  STM1A734F   **  NCA YN PO202400055651002000799999ENGINE ASSY, L/CLUTCH                    ZZ                                                                                  20240725            2024072520240725          PIECEN                           20240726WARP 20240726WARP 
1160000E510  STM1E075E   **  NCA YN PO202400055749002000799999ENGINE ASSY, L/CLUTCH                    ZZ                                                                                  20240725            2024072520240725          PIECEN                           20240726WARP 20240726WARP 
1160000E510  STM1F075E   **  NCA YN PO202400055817002000799999ENGINE ASSY, L/CLUTCH                    ZZ                                                                                  20240725            2024072520240725          PIECEN                           20240726WARP 20240726WARP 
1160000E530  STM1A024J   **  NCA YN PO202400055642002000799999ENGINE ASSY,L/CLUTCH                     ZZ                                                                                  20240725            2024072520240725          PIECEN                           20240726WARP 20240726WARP 
1160000E530  STM1A188D   **  NCA YN PO202400055642002000799999ENGINE ASSY,L/CLUTCH                     ZZ                                                                                  20240725            2024072520240725          PIECEN                           20240726WARP 20240726WARP 
1160000E530  STM1A274D   **  NCA YN PO202400055642002000799999ENGINE ASSY,L/CLUTCH                     ZZ                                                                                  20240725            2024072520240725          PIECEN                           20240726WARP 20240726WARP 
1160000E530  STM1A407D   **  NCA YN PO202400055642002000799999ENGINE ASSY,L/CLUTCH                     ZZ                                                                                  20240725            2024072520240725          PIECEN                           20240726WARP 20240726WARP 
1160000E530  STM1A481D   **  NCA YN PO202400055642002000799999ENGINE ASSY,L/CLUTCH                     ZZ                                                                                  20240725            2024072520240725          PIECEN                           20240726WARP 20240726WARP 
1160000E530  STM1A734F   **  NCA YN PO202400055642002000799999ENGINE ASSY,L/CLUTCH                     ZZ                                                                                  20240725            2024072520240725          PIECEN                           20240726WARP 20240726WARP 
1160000E530  STM1A867B   **  NCA YN PO202400055642002000799999ENGINE ASSY,L/CLUTCH                     ZZ                                                                                  20240725            2024072520240725          PIECEN                           20240726WARP 20240726WARP 
1160000E530  STM1E645B   **  NCA YN PO202400055740002000799999ENGINE ASSY,L/CLUTCH                     ZZ                                                                                  20240725            2024072520240725          PIECEN                           20240726WARP 20240726WARP 
1160000E530  STM1F645B   **  NCA YN PO202400055808002000799999ENGINE ASSY,L/CLUTCH                     ZZ                                                                                  20240725            2024072520240725          PIECEN                           20240726WARP 20240726WARP 
1160000E530  STM1F867B   **  NCA YN PO202400055808002000799999ENGINE ASSY,L/CLUTCH                     ZZ                                                                                  20240725            2024072520240725          PIECEN                           20240726WARP 20240726WARP 
1160000E760  STM1A274D   **  NCA YN PO202400055643002000799999ENGINE ASSY, L/CLUTCH                    ZZ                                                                                  20240725            2024072520240725          PIECEN                           20240726WARP 20240726WARP 
1160000E760  STM1E645B   **  NCA YN PO202400055741002000799999ENGINE ASSY, L/CLUTCH                    ZZ                                                                                  20240725            2024072520240725          PIECEN                           20240726WARP 20240726WARP 
1160000E760  STM1F645B   **  NCA YN PO202400055809002000799999ENGINE ASSY, L/CLUTCH                    ZZ                                                                                  20240725            2024072520240725          PIECEN                           20240726WARP 20240726WARP 
1160000E760  STM1F867B   **  NCA YN PO202400055809002000799999ENGINE ASSY, L/CLUTCH                    ZZ                                                                                  20240725            2024072520240725          PIECEN                           20240726WARP 20240726WARP 
1160000E850  STM1A274D   **  NCA YN PO202400055645002000799999ENGINE ASSY, L/CLUTCH                    ZZ                                                                                  20240725            2024072520240725          PIECEN                           20240726WARP 20240726WARP 
1160000E850  STM1E274D   **  NCA YN PO202400055743002000799999ENGINE ASSY, L/CLUTCH                    ZZ                                                                                  20240725            2024072520240725          PIECEN                           20240726WARP 20240726WARP 
1160000E850  STM1F274D   **  NCA YN PO202400055811002000799999ENGINE ASSY, L/CLUTCH                    ZZ                                                                                  20240725            2024072520240725          PIECEN                           20240726WARP 20240726WARP 
1160000EA00  STM1A274D   **  NCA YN PO202400055641002000799999ENGINE ASSY, L/CLUTCH                    ZZ                                                                                  20240725            2024072520240725          PIECEN                           20240726WARP 20240726WARP 
1160000EA00  STM1E645B   **  NCA YN PO202400055739002000799999ENGINE ASSY, L/CLUTCH                    ZZ                                                                                  20240725            2024072520240725          PIECEN                           20240726WARP 20240726WARP 
1160000EA00  STM1F645B   **  NCA YN PO202400055807002000799999ENGINE ASSY, L/CLUTCH                    ZZ                                                                                  20240725            2024072520240725          PIECEN                           20240726WARP 20240726WARP 
1160000EA20  STM1A274D   **  NCA YN PO202400055634002000799999ENGINE ASSY, L/CLUTCH                    ZZ                                                                                  20240725            2024072520240725          PIECEN                           20240726WARP 20240726WARP 
1160000EA20  STM1E645B   **  NCA YN PO202400055732002000799999ENGINE ASSY, L/CLUTCH                    ZZ                                                                                  20240725            2024072520240725          PIECEN                           20240726WARP 20240726WARP 
1160000EA20  STM1F867B   **  NCA YN PO202400055800002000799999ENGINE ASSY, L/CLUTCH                    ZZ                                                                                  20240725            2024072520240725          PIECEN                           20240726WARP 20240726WARP 
1160000EA60  STM1A274D   **  NCA YN PO202400055647002000799999ENGINE ASSY, L/CLUTCH                    ZZ                                                                                  20240725            2024072520240725          PIECEN                           20240726WARP 20240726WARP 
1160000EA60  STM1E188D   **  NCA YN PO202400055745002000799999ENGINE ASSY, L/CLUTCH                    ZZ                                                                                  20240725            2024072520240725          PIECEN                           20240726WARP 20240726WARP 
1160000EA60  STM1F188D   **  NCA YN PO202400055813002000799999ENGINE ASSY, L/CLUTCH                    ZZ                                                                                  20240725            2024072520240725          PIECEN                           20240726WARP 20240726WARP 
1160000EA70  STM1A274D   **  NCA YN PO202400055650002000799999ENGINE ASSY, L/CLUTCH                    ZZ                                                                                  20240725            2024072520240725          PIECEN                           20240726WARP 20240726WARP 
1160000EA70  STM1E188D   **  NCA YN PO202400055748002000799999ENGINE ASSY, L/CLUTCH                    ZZ                                                                                  20240725            2024072520240725          PIECEN                           20240726WARP 20240726WARP 
1160000EA70  STM1F188D   **  NCA YN PO202400055816002000799999ENGINE ASSY, L/CLUTCH                    ZZ                                                                                  20240725            2024072520240725          PIECEN                           20240726WARP 20240726WARP 
1160000EB40  STM1A274D   **  NCA YN PO202400055635002000799999ENGINE ASSY, L/CLUTCH                    ZZ                                                                                  20240725            2024072520240725          PIECEN                           20240726WARP 20240726WARP 
1160000EB40  STM1E274D   **  NCA YN PO202400055733002000799999ENGINE ASSY, L/CLUTCH                    ZZ                                                                                  20240725            2024072520240725          PIECEN                           20240726WARP 20240726WARP 
1160000EB40  STM1F274D   **  NCA YN PO202400055801002000799999ENGINE ASSY, L/CLUTCH                    ZZ                                                                                  20240725            2024072520240725          PIECEN                           20240726WARP 20240726WARP 
1160000EB60  STM1A274D   **  NCA YN PO202400055618002000799999ENGINE ASSY, L/CLUTCH                    ZZ                                                                                  20240725            2024072520240725          PIECEN                           20240726WARP 20240726WARP 
1160000EB60  STM1E274D   **  NCA YN PO202400055716002000799999ENGINE ASSY, L/CLUTCH                    ZZ                                                                                  20240725            2024072520240725          PIECEN                           20240726WARP 20240726WARP 
1160000EB60  STM1F274D   **  NCA YN PO202400055784002000799999ENGINE ASSY, L/CLUTCH                    ZZ                                                                                  20240725            2024072520240725          PIECEN                           20240726WARP 20240726WARP 
1160000ED61  STM1A274D   **  NCA YN PO202400055658002000799999ENGINE ASSY, L/CLUTCH                    ZZ                                                                                  20240725            2024072520240725          PIECEN                           20240726WARP 20240726WARP 
1160000ED61  STM1E274D   **  NCA YN PO202400055756002000799999ENGINE ASSY, L/CLUTCH                    ZZ                                                                                  20240725            2024072520240725          PIECEN                           20240726WARP 20240726WARP 
1160000ED61  STM1E320D   **  NCA YN PO202400055756002000799999ENGINE ASSY, L/CLUTCH                    ZZ                                                                                  20240725            2024072520240725          PIECEN                           20240726WARP 20240726WARP 
1160000ED61  STM1E481D   **  NCA YN PO202400055756002000799999ENGINE ASSY, L/CLUTCH                    ZZ                                                                                  20240725            2024072520240725          PIECEN                           20240726WARP 20240726WARP 
1160000ED61  STM1E734F   **  NCA YN PO202400055756002000799999ENGINE ASSY, L/CLUTCH                    ZZ                                                                                  20240725            2024072520240725          PIECEN                           20240726WARP 20240726WARP 
1160000ED61  STM1F274D   **  NCA YN PO202400055824002000799999ENGINE ASSY, L/CLUTCH                    ZZ                                                                                  20240725            2024072520240725          PIECEN                           20240726WARP 20240726WARP 
1160000ED61  STM1F320D   **  NCA YN PO202400055824002000799999ENGINE ASSY, L/CLUTCH                    ZZ                                                                                  20240725            2024072520240725          PIECEN                           20240726WARP 20240726WARP 
1160000ED61  STM1F481D   **  NCA YN PO202400055824002000799999ENGINE ASSY, L/CLUTCH                    ZZ                                                                                  20240725            2024072520240725          PIECEN                           20240726WARP 20240726WARP 
1160000ED61  STM1F734F   **  NCA YN PO202400055824002000799999ENGINE ASSY, L/CLUTCH                    ZZ                                                                                  20240725            2024072520240725          PIECEN                           20240726WARP 20240726WARP 
1160000ED70  STM1A274D   **  NCA YN PO202400055646002000799999ENGINE ASSY, L/CLUTCH                    ZZ                                                                                  20240725            2024072520240725          PIECEN                           20240726WARP 20240726WARP 
1160000ED70  STM1E274D   **  NCA YN PO202400055744002000799999ENGINE ASSY, L/CLUTCH                    ZZ                                                                                  20240725            2024072520240725          PIECEN                           20240726WARP 20240726WARP 
1160000ED70  STM1F024J   **  NCA YN PO202400055812002000799999ENGINE ASSY, L/CLUTCH                    ZZ                                                                                  20240725            2024072520240725          PIECEN                           20240726WARP 20240726WARP 
1160000ED70  STM1F274D   **  NCA YN PO202400055812002000799999ENGINE ASSY, L/CLUTCH                    ZZ                                                                                  20240725            2024072520240725          PIECEN                           20240726WARP 20240726WARP 
1160000ED70  STM1F481D   **  NCA YN PO202400055812002000799999ENGINE ASSY, L/CLUTCH                    ZZ                                                                                  20240725            2024072520240725          PIECEN                           20240726WARP 20240726WARP 
1160000ED70  STM1F734F   **  NCA YN PO202400055812002000799999ENGINE ASSY, L/CLUTCH                    ZZ                                                                                  20240725            2024072520240725          PIECEN                           20240726WARP 20240726WARP 
1160000ED80  STM1A274D   **  NCA YN PO202400055640002000799999ENGINE ASSY, L/CLUTCH                    ZZ                                                                                  20240725            2024072520240725          PIECEN                           20240726WARP 20240726WARP 
1160000ED80  STM1E274D   **  NCA YN PO202400055738002000799999ENGINE ASSY, L/CLUTCH                    ZZ                                                                                  20240725            2024072520240725          PIECEN                           20240726WARP 20240726WARP 
1160000ED80  STM1F024J   **  NCA YN PO202400055806002000799999ENGINE ASSY, L/CLUTCH                    ZZ                                                                                  20240725            2024072520240725          PIECEN                           20240726WARP 20240726WARP 
1160000ED80  STM1F274D   **  NCA YN PO202400055806002000799999ENGINE ASSY, L/CLUTCH                    ZZ                                                                                  20240725            2024072520240725          PIECEN                           20240726WARP 20240726WARP 
1160000ED80  STM1F481D   **  NCA YN PO202400055806002000799999ENGINE ASSY, L/CLUTCH                    ZZ                                                                                  20240725            2024072520240725          PIECEN                           20240726WARP 20240726WARP 
1160000ED80  STM1F734F   **  NCA YN PO202400055806002000799999ENGINE ASSY, L/CLUTCH                    ZZ                                                                                  20240725            2024072520240725          PIECEN                           20240726WARP 20240726WARP 
1160000ED91  STM1A274D   **  NCA YN PO202400055655002000799999ENGINE ASSY, L/CLUTCH                    ZZ                                                                                  20240725            2024072520240725          PIECEN                           20240726WARP 20240726WARP 
1160000ED91  STM1E274D   **  NCA YN PO202400055753002000799999ENGINE ASSY, L/CLUTCH                    ZZ                                                                                  20240725            2024072520240725          PIECEN                           20240726WARP 20240726WARP 
1160000ED91  STM1F181B   **  NCA YN PO202400055821002000799999ENGINE ASSY, L/CLUTCH                    ZZ                                                                                  20240725            2024072520240725          PIECEN                           20240726WARP 20240726WARP 
1160000EE00  STM1A481D   **  NCA YN PO202400055664002000799999ENGINE ASSY, L/CLUTCH                    ZZ                                                                                  20240725            2024072520240725          PIECEN                           20240726WARP 20240726WARP 
1160000EE00  STM1E481D   **  NCA YN PO202400055762002000799999ENGINE ASSY, L/CLUTCH                    ZZ                                                                                  20240725            2024072520240725          PIECEN                           20240726WARP 20240726WARP 
1160000EE00  STM1F407D   **  NCA YN PO202400055830002000799999ENGINE ASSY, L/CLUTCH                    ZZ                                                                                  20240725            2024072520240725          PIECEN                           20240726WARP 20240726WARP 
1160000EE00  STM1F481D   **  NCA YN PO202400055830002000799999ENGINE ASSY, L/CLUTCH                    ZZ                                                                                  20240725            2024072520240725          PIECEN                           20240726WARP 20240726WARP 
1160000EE00  STM1F734F   **  NCA YN PO202400055830002000799999ENGINE ASSY, L/CLUTCH                    ZZ                                                                                  20240725            2024072520240725          PIECEN                           20240726WARP 20240726WARP 
1160000T150  STM1E076D   **  NCA YN PO202400055771002000799999ENGINE ASSY, L/CLUTCH                    ZZ                                                                                  20240725            2024072520240725          PIECEN                           20240726WARP 20240726WARP 
1160000T150  STM1E350B   **  NCA YN PO202400055771002000799999ENGINE ASSY, L/CLUTCH                    ZZ                                                                                  20240725            2024072520240725          PIECEN                           20240726WARP 20240726WARP 
1160000T150  STM1E492B   **  NCA YN PO202400055771002000799999ENGINE ASSY, L/CLUTCH                    ZZ                                                                                  20240725            2024072520240725          PIECEN                           20240726WARP 20240726WARP 
1160000T150  STM1E740B   **  NCA YN PO202400055771002000799999ENGINE ASSY, L/CLUTCH                    ZZ                                                                                  20240725            2024072520240725          PIECEN                           20240726WARP 20240726WARP 
1160000T180  STM1E199D   **  NCA YN PO202400055772002000799999ENGINE ASSY, L/CLUTCH                    ZZ                                                                                  20240725            2024072520240725          PIECEN                           20240726WARP 20240726WARP 
1160000Y290  STM1A380A   **  NCA YN PO202400055686002000799999ENGINE ASSY, L/CLUTCH                    ZZ                                                                                  20240725            2024072520240725          PIECEN                           20240726WARP 20240726WARP 
1160000Y310  STM1A380A   **  NCA YN PO202400055671002000799999ENGINE ASSY, L/CLUTCH                    ZZ                                                                                  20240725            2024072520240725          PIECEN                           20240726WARP 20240726WARP 
1160000Y410  STM1A380A   **  NCA YN PO202400055670002000799999ENGINE ASSY, L/CLUTCH                    ZZ                                                                                  20240725            2024072520240725          PIECEN                           20240726WARP 20240726WARP 
1160000Y640  STM1A230B   **  NCA YN PO202400055666002000799999ENGINE ASSY, L/CLUTCH                    ZZ                                                                                  20240725            2024072520240725          PIECEN                           20240726WARP 20240726WARP 
116000BZQ90  STM1AD92A   **  NCA YN PO202400055675002000799999ENGINE ASSY, L/CLUTCH                    ZZ                                                                                  20240725            2024072520240725          PIECEN                           20240726WARP 20240726WARP 
116000BZR70  STM1AD13E   **  NCA YN PO202400055679002000799999ENGINE ASSY, L/CLUTCH                    ZZ                                                                                  20240725            2024072520240725          PIECEN                           20240726WARP 20240726WARP 
116000BZR70  STM1AD92A   **  NCA YN PO202400055679002000799999ENGINE ASSY, L/CLUTCH                    ZZ                                                                                  20240725            2024072520240725          PIECEN                           20240726WARP 20240726WARP 
116000BZR80  STM1AD13E   **  NCA YN PO202400055668002000799999ENGINE ASSY, L/CLUTCH                    ZZ                                                                                  20240725            2024072520240725          PIECEN                           20240726WARP 20240726WARP 
116000BZR80  STM1AD92A   **  NCA YN PO202400055668002000799999ENGINE ASSY, L/CLUTCH                    ZZ                                                                                  20240725            2024072520240725          PIECEN                           20240726WARP 20240726WARP 
116000BZS40  STM1AD13E   **  NCA YN PO202400055681002000799999ENGINE ASSY, L/CLUTCH                    ZZ                                                                                  20240725            2024072520240725          PIECEN                           20240726WARP 20240726WARP 
116000BZS40  STM1AD92A   **  NCA YN PO202400055681002000799999ENGINE ASSY, L/CLUTCH                    ZZ                                                                                  20240725            2024072520240725          PIECEN                           20240726WARP 20240726WARP 
116000BZS50  STM1AD13E   **  NCA YN PO202400055674002000799999ENGINE ASSY, L/CLUTCH                    ZZ                                                                                  20240725            2024072520240725          PIECEN                           20240726WARP 20240726WARP 
116000BZS50  STM1AD92A   **  NCA YN PO202400055674002000799999ENGINE ASSY, L/CLUTCH                    ZZ                                                                                  20240725            2024072520240725          PIECEN                           20240726WARP 20240726WARP 
116000BZS60  STM1AD13E   **  NCA YN PO202400055676002000799999ENGINE ASSY, L/CLUTCH                    ZZ                                                                                  20240725            2024072520240725          PIECEN                           20240726WARP 20240726WARP 
116000BZS60  STM1AD92A   **  NCA YN PO202400055676002000799999ENGINE ASSY, L/CLUTCH                    ZZ                                                                                  20240725            2024072520240725          PIECEN                           20240726WARP 20240726WARP 
116000BZS70  STM1AD13E   **  NCA YN PO202400055667002000799999ENGINE ASSY, L/CLUTCH                    ZZ                                                                                  20240725            2024072520240725          PIECEN                           20240726WARP 20240726WARP 
116000BZS70  STM1AD92A   **  NCA YN PO202400055667002000799999ENGINE ASSY, L/CLUTCH                    ZZ                                                                                  20240725            2024072520240725          PIECEN                           20240726WARP 20240726WARP 
116000BZU10  STM1AD02D   **  NCA YN PO202400055680002000799999ENGINE ASSY, L/CLUTCH                    ZZ                                                                                  20240725            2024072520240725          PIECEN                           20240726WARP 20240726WARP 
116000BZU10  STM1AD03B   **  NCA YN PO202400055680002000799999ENGINE ASSY, L/CLUTCH                    ZZ                                                                                  20240725            2024072520240725          PIECEN                           20240726WARP 20240726WARP 
116000BZU10  STM1AD13E   **  NCA YN PO202400055680002000799999ENGINE ASSY, L/CLUTCH                    ZZ                                                                                  20240725            2024072520240725          PIECEN                           20240726WARP 20240726WARP 
